:100000000C945D000C947C000C947C000C947C009F
:100010000C947C000C947C000C947C000C947C0070
:100020000C947C000C947C000C947C000C947C0060
:100030000C947C000C947C000C947C000C947C0050
:100040000C94B0000C947C000C947C000C947C000C
:100050000C947C000C947E000C947C000C947C002E
:100060000C947C000C947C000C947C000C947C0020
:100070000C947C000C947C000C947C000C947C0010
:100080000C947C000C947C000C947C00084AD73BB8
:100090003BCE016E84BCBFFDC12F3D6C74319ABD57
:1000A00056833DDA3D00C77F11BED9E4BB4C3E917B
:1000B0006BAAAABE000000803F0011241FBECFEF34
:1000C000D0E1DEBFCDBF12E0A8E0B2E001C01D92DA
:1000D000A534B107E1F712E0A0E0B1E0EAE6FDE106
:1000E00000E00BBF02C007900D92A830B107D9F70E
:1000F0000E9484030C94B30E0C9400001F920F9284
:100100000FB60F9211242F933F934F938F939F938A
:1001100084B190E090930D0280930C0280910C02C8
:1001200090910D0245B1342F20E0820F931F9093E0
:100130000D0280930C0281E0809322029F918F91A7
:100140004F913F912F910F900FBE0F901F901895D8
:100150001092610080E487B98FEE86B97894089593
:100160001F920F920FB60F920BB60F9211242F937E
:100170003F934F935F936F937F938F939F93AF932F
:10018000BF93EF93FF9360910802709109028091F1
:100190000A0290910B022FE632E143E05BE30E94FA
:1001A000CB079B01AC0120930802309309024093D6
:1001B0000A0250930B0283E882BFFF91EF91BF9137
:1001C000AF919F918F917F916F915F914F913F91EF
:1001D0002F910F900BBE0F900FBE0F901F90189590
:1001E00094EA909374009091740097FFFCCF9091E3
:1001F0007100987F9830D9F790ED9093730094E850
:10020000909374009091740097FFFCCF90917100CF
:10021000987F9831D9F78093730084E880937400B5
:100220008091740087FFFCCF80917100887F8832B5
:10023000D9F76093730084E8809374008091740010
:1002400087FFFCCF80917100887F8832D9F784E9DD
:100250008093740008958BE663E00E94F0008FE9BC
:100260009FE00197F1F700C000008AE165E00E947D
:10027000F0008AE660E20E94F00084E26DE00E94F5
:10028000F00087E66FE00E94F0008EE26CE00E94D2
:10029000F0008FE26AE00E94F00080E361E80E94D3
:1002A000F00086E661E10E94F00084E363E10E94D1
:1002B000F00085E26CE80E94F00086E263E00E94B4
:1002C000F00087E262ED0E94F00088E26CE80E9494
:1002D000F00089E265E00E94F0008AE262ED0E948F
:1002E000F0008BE26CE80E94F0008CE267E00E9474
:1002F000F0008DE262ED0E94F000089594EA909380
:1003000074009091740097FFFCCF90917100987FDA
:100310009830D9F790ED9093730094E8909374001F
:100320009091740097FFFCCF90917100987F983165
:10033000D9F78093730084E88093740080917400EF
:1003400087FFFCCF80917100887F8832D9F784EADB
:10035000809374008091740087FFFCCF80917100BE
:10036000887F8031D9F781ED8093730084E8809392
:1003700074008091740087FFFCCF80917100887FAA
:100380008034D9F784E8809374008091740087FFEB
:10039000FCCF80917100887F8835D9F780917300F8
:1003A00094E99093740008958BE30E947E018093FA
:1003B000280285E38A95F1F700008CE30E947E0114
:1003C00080933B0285E38A95F1F700008DE30E945C
:1003D0007E018093440285E38A95F1F700008EE365
:1003E0000E947E018093170285E38A95F1F7000051
:1003F0008FE30E947E018093180285E38A95F1F7CE
:10040000000080E40E947E0180931F0285E38A95AC
:10041000F1F7000085E40E947E018093160285E3D7
:100420008A95F1F7000086E40E947E0180932702FE
:1004300085E38A95F1F7000008954F925F926F92DD
:100440007F928F929F92AF92BF92CF92DF92EF9264
:10045000FF920F931F93CF93DF93CAE0D0E081E028
:10046000C82E80ECD82E0E94D40190912802809151
:100470003B02592E442490E084299529909321022F
:1004800080932002E0901902F0901A0200911B0262
:1004900010911C028091200290912102B601681BEC
:1004A000790B882777FD8095982F0E94310A9B0150
:1004B000AC01C801B7010E94CB079B01AC0120939E
:1004C000190230931A0240931B0250931C02909120
:1004D000440280911702792E662490E0862997299C
:1004E0009093210280932002E0900E02F0900F0280
:1004F000009110021091110260912002709121026E
:10050000709561957F4F882777FD8095982F0E9481
:10051000310A9B01AC01C801B7010E94CB079B01C6
:10052000AC0120930E0230930F02409310025093BF
:1005300011029091180280911F02992E882490E058
:10054000882999299093210280932002E090230228
:10055000F090240200912502109126026091200261
:1005600070912102882777FD8095982F0E94310A8B
:100570009B01AC01C801B7010E94CB079B01AC01F4
:1005800020932302309324024093250250932602A5
:100590009091160280912702B92EAA2490E08A2910
:1005A0009B299093210280932002E0903C02F090DE
:1005B0003D0200913E0210913F0260912002709135
:1005C0002102882777FD8095982F0E94310A9B0190
:1005D000AC01C801B7010E94CB079B01AC0120937D
:1005E0003C0230933D0240933E0250933F028FEF16
:1005F00091EEA4E081509040A040E1F700C00000DF
:10060000219709F030CF6091190270911A02809100
:100610001B0290911C0220E030E040E251E40E9475
:1006200023099B01AC012093190230931A024093D5
:100630001B0250931C0260910E0270910F02809178
:1006400010029091110220E030E040E251E40E945B
:1006500023099B01AC0120930E0230930F024093BB
:100660001002509311026091230270912402809134
:1006700025029091260220E030E040E251E40E9401
:1006800023099B01AC012093230230932402409361
:1006900025025093260260913C0270913D028091A8
:1006A0003E0290913F0220E030E040E251E40E949F
:1006B00023099B01AC0120933C0230933D024093FF
:1006C0003E0250933F0280913C0290913D02A091E6
:1006D0003E02B0913F028093120290931302A093C6
:1006E0001402B0931502DF91CF911F910F91FF90EB
:1006F000EF90DF90CF90BF90AF909F908F907F90C2
:100700006F905F904F9008952F923F924F925F921B
:100710006F927F928F929F92AF92BF92CF92DF9211
:10072000EF92FF920F931F93DF93CF93CDB7DEB776
:1007300028970FB6F894DEBF0FBECDBF8FEF8ABBF0
:1007400090E197BB84BB82B18F73806482B90E94B1
:10075000A80084E0809374008CE08093700086E0B1
:1007600083BF83E882BF81E087BF0E942B010E9484
:100770001D0280E88FBF55245394A4E04A2E23E045
:100780002EBD1E9835E33A95F1F700001E9A85E3D9
:100790008A95F1F700001E980F9BFECF1DBC1CBC74
:1007A0000F99FECF1EBC6CB57DB5660F771F660F27
:1007B000771F7695679580E090E024E531E040E092
:1007C00050E00E947B0C28EE33E040E050E00E94B5
:1007D0009A0C19010E94D401809133029091340245
:1007E000A0913502B091360280933702909338027F
:1007F000A0933902B0933A029091280280913B0273
:100800009A83198290E0A981BA818A2B9B2B9093BD
:100810002102809320026091200270912102709544
:1008200061957F4F882777FD8095982F0E94310A28
:100830006093190270931A0280931B0290931C021A
:1008400090914402809117029C831B8290E0EB817F
:10085000FC818E2B9F2B909321028093200260912C
:10086000200270912102709561957F4F882777FD56
:100870008095982F0E94310A60930E0270930F02A8
:1008800080931002909311029091180280911F02A0
:100890009E831D8290E02D813E81822B932B90932D
:1008A000210280932002609120027091210288270A
:1008B00077FD8095982F0E94310A609323027093F0
:1008C0002402809325029093260290911602809133
:1008D000270298871F8290E0AF81B8858A2B9B2BD7
:1008E0009093210280932002609120027091210256
:1008F000882777FD8095982F0E94310A60933C02EB
:1009000070933D0280933E0290933F0260913C02BF
:1009100070913D0280913E0290913F02209112021F
:100920003091130240911402509115020E94F80771
:1009300020E030E043E053E40E9423099B01AC0136
:1009400020933C0230933D0240933E0250933F027D
:100950006090190270901A0280901B0290901C0205
:1009600020910E0230910F0240911002509111021D
:10097000CA01B9010E942908162F072FE82EC92E97
:1009800020912302309124024091250250912602A9
:10099000CA01B9010E942908B62FA72FF82FE92F05
:1009A000B801272F362F4E2D5C2DCA01B9010F2F0C
:1009B0001E2F2B2F3A2FA8010E94CB070E94BD0D9E
:1009C0009B01AC01C401B3010E9423090E94F30CF6
:1009D00021EE3EE245E652E40E9429089B01AC016B
:1009E00020932D0230932E0240932F025093300219
:1009F00060913C0270913D0280913E0290913F02D5
:100A0000209108023091090240910A0250910B0294
:100A1000E0903702F09038020091390210913A02CA
:100A20000E942908A80197010E94CB079B01AC01F5
:100A30002093290230932A0240932B0250932C02D8
:100A400080E090E0DC018093080290930902A0937B
:100A50000A02B0930B028FE892ECA5E7BFE3809304
:100A6000400290934102A0934202B09343026091EE
:100A70004002709141028091420290914302209184
:100A8000290230912A0240912B0250912C02A09011
:100A90004002B0904102C0904202D0904302609068
:100AA0002D0270902E0280902F02909030020E94B2
:100AB00029087B018C0160E070E080E89FE3A601DB
:100AC00095010E94F807A40193010E9429089B0147
:100AD000AC01C801B7010E94CB079B01AC01209378
:100AE00033023093340240933502509336028091A2
:100AF0002202813011F410922202A4E1B0E0B093FE
:100B00003202A0933102E4ECFFEFF0931E02E09377
:100B10001D0211E0F4EF2F16F1E03F0608F010E09F
:100B200020910C0230910D0280913102909132029D
:100B3000C0903302D0903402E0903502F09036023B
:100B400060911D0270911E0241E08217930708F028
:100B500040E0412BA42EBB24882777FD8095982F59
:100B60000E94310A9B01AC0161E0662E712CC70125
:100B7000B6010E94D109181614F066247724A6281D
:100B8000B728A114B10409F4A9C0112361F085E0CC
:100B900090E020E128BBAFE9BFE01197F1F700C07A
:100BA00000000197B1F720910C0230910D02809165
:100BB0003102909132028217930738F445BAEFE17F
:100BC000FEE43197F1F700C00000E0903302F090AE
:100BD0003402009135021091360260911D0270912D
:100BE0001E02882777FD8095982F0E94310A9B016D
:100BF000AC01C801B7010E94D10918163CF44BBAE8
:100C00008FE19EE40197F1F700C0000011E095EF3D
:100C1000291691E0390608F410E020910C02309179
:100C20000D028091310290913202C0903302D09037
:100C30003402E0903502F090360260911D0270910E
:100C40001E0241E02817390708F040E0412BA42E8E
:100C5000BB24882777FD8095982F0E94310A9B013D
:100C6000AC0191E0692E712CC701B6010E94010A06
:100C700087FD02C066247724A628B728A114B104F2
:100C8000B1F1111118BA20910C0230910D0280912E
:100C90003102909132022817390708F455BAE090D2
:100CA0003302F090340200913502109136026091C7
:100CB0001D0270911E02882777FD8095982F0E9453
:100CC000310A9B01AC01C801B7010E94010A87FDEE
:100CD0005BBAAFE1BEE41197F1F707C018BA55BA95
:100CE0005BBAEFE1FEE43197F1F700C000008FEF4F
:100CF00091EEA4E081509040A040E1F700C00000D8
:100D00003ECDA0E0B0E0E7E8F6E00C94C00CFC01BA
:100D1000EA018081823008F438C1DB019C91923075
:100D200008F430C1843059F4943009F02EC1918117
:100D300011968C911197981709F021C126C1943012
:100D400009F420C19230B1F4823009F01EC1CA0109
:100D5000AF0128E0DA010D90AD01DC010D92CD016B
:100D60002150C1F7DB0111968C9111979181892354
:100D700089830AC1823009F405C1C280D380DB01B6
:100D800012966D907C90139724813581468157810E
:100D90001496ED90FD900D911C911797C601861940
:100DA00097095C0197FF04C0AA24BB24A81AB90ABA
:100DB000B0E2AB16B1040CF061C0181619066CF560
:100DC000370148010A2C04C096948794779467945D
:100DD0000A94D2F781E090E0A0E0B0E00A2C04C0D1
:100DE000880F991FAA1FBB1F0A94D2F70197A10968
:100DF000B1098E219F21A023B123EE24FF24870176
:100E0000E3940097A105B10519F4EE24FF248701AE
:100E1000E628F728082919293CC00097D1F1CA0C07
:100E2000DB1C39014A010A2C04C0969487947794FC
:100E300067940A94D2F781E090E0A0E0B0E00A2C39
:100E400004C0880F991FAA1FBB1F0A94D2F70197ED
:100E5000A109B10982239323A423B52321E030E023
:100E600040E050E00097A105B10519F420E030E022
:100E7000A90126293729482959290BC06C147D045A
:100E800024F4EE24FF24870104C0630120E030E055
:100E9000A9018181FB019181891709F445C088234B
:100EA00049F0D801C701821B930BA40BB50B9C0121
:100EB000AD0104C02E193F09400B510B57FD04C072
:100EC0001982DB82CA820BC081E08983DB82CA82FD
:100ED00050954095309521953F4F4F4F5F4F2C8354
:100EE0003D834E835F830DC0880F991FAA1FBB1FD0
:100EF0008C839D83AE83BF838A819B8101979B8373
:100F00008A838C819D81AE81BF819C01AD0121507E
:100F10003040404050402F3FEFEF3E07EFEF4E078D
:100F2000EFE35E0708F30BC08983DB82CA822E0DD4
:100F30003F1D401F511F2C833D834E835F8383E001
:100F400088832C813D814E815F8157FF1DC0DA016E
:100F5000C90181709070A070B07056954795379513
:100F60002795822B932BA42BB52B8C839D83AE834B
:100F7000BF838A819B8101969B838A8305C0E0E0C1
:100F8000F1E003C0FB0101C0FE01CF01CDB7DEB728
:100F9000EEE00C94DC0CA0E2B0E0E1EDF7E00C94A4
:100FA000C80C69837A838B839C832D833E834F8314
:100FB000588789E0E82EF12CEC0EFD1ECE0101963B
:100FC000B7010E94B90B8E010F5E1F4FCE0105962F
:100FD000B8010E94B90BC701B801AE01475E5F4F6F
:100FE0000E9481060E94EB0AA096E6E00C94E40CB5
:100FF000A0E2B0E0EEEFF7E00C94C80C69837A83CE
:101000008B839C832D833E834F8358878E01075F9C
:101010001F4FCE010196B8010E94B90B91E1E92E54
:10102000F12CEC0EFD1ECE010596B7010E94B90B06
:101030008A8991E089278A8BC801B701AE01475E92
:101040005F4F0E9481060E94EB0AA096E6E00C9496
:10105000E40CA0E2B0E0EFE2F8E00C94BC0C698391
:101060007A838B839C832D833E834F835887CE0165
:101070000196BE01675F7F4F0E94B90BCE010596B6
:10108000BE016F5E7F4F0E94B90B9985923078F058
:1010900089898230C0F0943019F4823041F4CBC099
:1010A000843019F4923079F4C6C0923051F481E062
:1010B0002A859A89291709F480E08A87CE01099642
:1010C000BCC0823051F481E02A859A89291709F43D
:1010D00080E08A8BCE014196B0C06D847E848F847F
:1010E0009888ED88FE880F89188DE0E2F0E080E0B6
:1010F00090E0DC01AA24BB24650120E030E0A901D6
:10110000B3016170707061157105D1F02E0D3F1D36
:10111000401F511F15012601280E391E4A1E5B1E55
:1011200081E090E0A0E0B0E02E153F0540075107B8
:1011300018F080E090E0DC01820D931DA41DB51D28
:10114000AA0CBB1CCC1CDD1C17FF09C061E0262EBD
:10115000312C412C512CA228B328C428D5283197F2
:1011600049F0EE0CFF1C001F111F96948794779492
:101170006794C6CF6B897C89EB85FC856E0F7F1FDA
:101180006E5F7F4F7C8F6B8F61E0EA857A89E7170E
:1011900009F460E06A8F6B8D7C8D10C0FC01E170FA
:1011A000F070309729F056954795379527955068F8
:1011B000B695A795979587956F5F7F4FB7FDEECF53
:1011C0000CC0880F991FAA1FBB1F57FD8160220FFB
:1011D000331F441F551F615070408030E0E09E0770
:1011E000E0E0AE07E0E4BE0760F36B8F7C8F6FE753
:1011F000E62EF12C012D112DE822F9220A231B23C2
:1012000060E4E616F1040105110561F487FD0AC0EA
:10121000211531054105510529F0805C9F4FAF4FE5
:10122000BF4F80788D8F9E8FAF8FB8A383E0898F5B
:10123000CE01499602C080E091E00E94EB0AA096A0
:10124000E2E10C94D80CA8E1B0E0E9E2F9E00C94FA
:10125000C40C69837A838B839C832D833E834F8365
:1012600058878E01075F1F4FCE010196B8010E947B
:10127000B90B81E1E82EF12CEC0EFD1ECE01059696
:10128000B7010E94B90B9985923008F483C089890F
:10129000823008F47BC02A853A8923272A87943034
:1012A00011F0923021F4981709F06CC071C08430AD
:1012B00039F41D861E861F86188A1C861B866AC006
:1012C000823019F484E0898765C08B859C852B89E1
:1012D0003C89821B930B9C878B872D853E854F8590
:1012E0005889ED88FE880F89188D2E153F05400717
:1012F000510738F4220F331F441F551F01979C8755
:101300008B876FE170E0A12CB12CC12CA0E4DA2E08
:1013100080E090E0DC012E153F054007510740F0CA
:101320008A299B29AC29BD292E193F09400B510B55
:10133000D694C794B794A794220F331F441F551F08
:101340006150704041F76FE7E62EF12C012D112D11
:10135000E822F9220A231B2360E4E616F1040105C2
:10136000110561F487FD0AC02115310541055105BC
:1013700029F0805C9F4FAF4FBF4F80788D879E874D
:10138000AF87B88B8E01075F1F4F04C0870102C073
:1013900000E011E0C8010E94EB0A6896EAE00C94B4
:1013A000E00CA8E1B0E0E7EDF9E00C94C80C69832B
:1013B0007A838B839C832D833E834F8358878E0152
:1013C000075F1F4FCE010196B8010E94B90B81E162
:1013D000E82EF12CEC0EFD1ECE010596B7010E9401
:1013E000B90B8985823040F08989823028F0C801A4
:1013F000B7010E94220C01C08FEF6896E6E00C94C2
:10140000E40CA8E1B0E0E7E0FAE00C94C80C6983D2
:101410007A838B839C832D833E834F8358878E01F1
:10142000075F1F4FCE010196B8010E94B90B81E101
:10143000E82EF12CEC0EFD1ECE010596B7010E94A0
:10144000B90B8985823040F08989823028F0C80143
:10145000B7010E94220C01C081E06896E6E00C947E
:10146000E40CA8E0B0E0E7E3FAE00C94C80C7B01E0
:101470008C0183E08983D801C7018827B7FD839554
:101480009927AA27BB27282F8A83E114F104010595
:10149000110519F482E0898337C08EE190E09C83C6
:1014A0008B83222389F080E0E81680E0F80680E054
:1014B000080780E8180769F110950095F094E0940A
:1014C000E11CF11C011D111DED82FE820F831887A6
:1014D000C801B7010E94910A9C01215030401216A8
:1014E000130694F4022E04C0EE0CFF1C001F111F03
:1014F0000A94D2F7ED82FE820F8318878EE190E086
:10150000821B930B9C838B83CE0101960E94EB0A76
:1015100004C060E070E080E09FEC2896E6E00C9468
:10152000E40CAF92BF92CF92DF92EF92FF920F93B3
:101530001F937B018C0180E0E81680E0F80681E0D3
:10154000080780E0180758F4EFEFEE16F1040105E4
:10155000110509F090F480E090E0DC0117C0F0E0A4
:10156000EF16F0E0FF06F0E00F07F1E01F0750F480
:1015700080E190E0A0E0B0E009C088E090E0A0E069
:10158000B0E004C088E190E0A0E0B0E020E230E00C
:1015900040E050E0281B390B4A0B5B0B57016801F8
:1015A00004C0D694C794B794A7948A95D2F7D6016D
:1015B000C501885F9E4FFC018081281B31094109CC
:1015C0005109C9011F910F91FF90EF90DF90CF90CB
:1015D000BF90AF900895EF92FF920F931F93CF9318
:1015E000DF93FC01248135814681578161818081AF
:1015F000823020F44061EFEFF0E0A3C0843009F4C2
:101600009BC0823009F492C0211531054105510576
:1016100009F48FC00280F381E02D8FEFE238F807E4
:101620000CF05AC0C2E8DFEFCE1BDF0BCA31D10588
:101630006CF579018A010C2E04C016950795F79474
:10164000E7940A94D2F781E090E0A0E0B0E00C2E9D
:1016500004C0880F991FAA1FBB1F0A94D2F70197D5
:10166000A109B10982239323A423B52321E030E00B
:1016700040E050E00097A105B10519F420E030E00A
:10168000A9012E293F29402B512B03C020E030E037
:10169000A901DA01C9018F779070A070B070803411
:1016A0009105A105B10539F427FF09C0205C3F4F22
:1016B0004F4F5F4F04C0215C3F4F4F4F5F4FE1E002
:1016C000F0E0203080E0380780E0480780E45807E9
:1016D00028F5E0E0F0E022C0E038F1056CF5E158D3
:1016E000FF4FDA01C9018F779070A070B07080341D
:1016F0009105A105B10539F427FF09C0205C3F4FD2
:101700004F4F5F4F04C0215C3F4F4F4F5F4F57FF1C
:1017100005C05695479537952795319687E056959C
:101720004795379527958A95D1F70BC0E0E0F0E013
:1017300005C0E0E0F0E005C0EFEFF0E020E030E0D1
:10174000A9018E2F879588278795942F9F77679576
:1017500066276795E695E22EA92FA82BFE2FF62B7C
:10176000622F732F8A2F9F2FCDB7DEB7E6E00C9440
:10177000E40CDC01FB012C9111963C91119712961F
:101780008C911297482F4F7750E0982F991F9927E7
:10179000991F13966C911397862F880F892B90E0D1
:1017A000661F6627661F6183009739F5211531058D
:1017B0004105510511F482E029C082E89FEF93832F
:1017C000828367E0220F331F441F551F6A95D1F7AC
:1017D00083E0808309C0220F331F441F551F82817D
:1017E0009381019793838283203080E0380780E0E3
:1017F000480780E4580778F320C08F3F910579F4BB
:10180000211531054105510519F484E080830895BF
:1018100044FF03C081E0808310C010820EC08F5748
:1018200090409383828383E0808387E0220F331F7D
:10183000441F551F8A95D1F750642483358346830E
:1018400057830895FC01DB019081923008F449C070
:101850008C91823008F445C0943051F46181843019
:10186000B1F511962C91119730E0261B310941C03A
:10187000843021F0923041F48230B1F111968C9194
:1018800011978823A1F12DC06181823001F1119659
:101890008C9111976817D9F42281338112968D911A
:1018A0009C9113978217930794F028173907BCF07F
:1018B000248135814681578114968D919D910D909B
:1018C000BC91A02D82179307A407B50718F46623CF
:1018D00041F00DC0281739074A075B0728F4662333
:1018E00031F021E030E005C020E030E002C02FEF11
:1018F0003FEFC9010895629FD001739FF001829F5D
:10190000E00DF11D649FE00DF11D929FF00D839F8E
:10191000F00D749FF00D659FF00D9927729FB00D2B
:10192000E11DF91F639FB00DE11DF91FBD01CF013E
:1019300011240895A1E21A2EAA1BBB1BFD010DC0A4
:10194000AA1FBB1FEE1FFF1FA217B307E407F5076F
:1019500020F0A21BB30BE40BF50B661F771F881F4B
:10196000991F1A9469F760957095809590959B01E1
:10197000AC01BD01CF0108952F923F924F925F922B
:101980006F927F928F929F92AF92BF92CF92DF928F
:10199000EF92FF920F931F93CF93DF93CDB7DEB7F4
:1019A000CA1BDB0B0FB6F894DEBF0FBECDBF099488
:1019B0002A88398848885F846E847D848C849B84DF
:1019C000AA84B984C884DF80EE80FD800C811B81ED
:1019D000AA81B981CE0FD11D0FB6F894DEBF0FBE1C
:1019E000CDBFED010895DF93DD27B92FBF7740E824
:1019F0005FE31616170648075B0710F4D92F51D07E
:101A00009F938F937F936F93F6D0ECE8F0E013D021
:101A100037D02F913F914F915F9154D0DD2349F002
:101A20009058A2EA2AED3FE049EC5FE3D0785D27C9
:101A3000F2D0DF9125C0DF93CF931F930F93FF92D6
:101A4000EF92DF927B018C01689405C0DA2EEF01E2
:101A500039D0FE01E894A591259135914591559194
:101A6000AEF3EF01D8D0FE019701A801DA9479F71F
:101A7000DF90EF90FF900F911F91CF91DF9108952C
:101A8000092E0394000C11F4882352F0BB0F40F48C
:101A9000BF2B11F460FF04C06F5F7F4F8F4F9F4FCC
:101AA00008959B01AC0160E070E080E89FE3CBCB40
:101AB00023D128F028D118F0952309F0FFC012C1D6
:101AC00011244BC127D1A0F3959FD1F3950F50E07E
:101AD000551F629FF001729FBB27F00DB11D639FE0
:101AE000AA27F00DB11DAA1F649F6627B00DA11D86
:101AF000661F829F2227B00DA11D621F739FB00D2C
:101B0000A11D621F839FA00D611D221F749F33279B
:101B1000A00D611D231F849F600D211D822F762F34
:101B20006A2F11249F5750408AF0E1F088234AF031
:101B3000EE0FFF1FBB1F661F771F881F915050407D
:101B4000A9F79E3F510570F0B9C007C15F3FECF3A4
:101B5000983EDCF3869577956795B795F795E79569
:101B60009F5FC1F7FE2B880F911D9695879597F97A
:101B7000089511F40EF4B6C0A7C0D4D0D0F39923C1
:101B8000D9F3CEF39F57550B87FFAFD00024A0E6C3
:101B900040EA900180585695979528F4805C660F2E
:101BA000771F881F20F026173707480730F4621B7D
:101BB000730B840B202931294A2BA695179407947F
:101BC000202531254A2758F7660F771F881F20F0F8
:101BD00026173707480730F4620B730B840B200D70
:101BE000311D411DA09581F7B901842F9158880FAF
:101BF0009695879508959B01AC012BCA7DD030F056
:101C000082D020F031F49F3F11F41EF46BC00EF42B
:101C1000E095E7FB53C0E92F7DD080F3BA17620748
:101C200073078407950718F071F49EF595C00EF4BC
:101C3000E0950B2EBA2FA02D0B01B90190010C01DC
:101C4000CA01A0011124FF27591B99F0593F50F4F4
:101C5000503E68F11A16F040A22F232F342F44274C
:101C6000585FF3CF469537952795A795F040539544
:101C7000C9F77EF41F16BA0B620B730B840BBAF014
:101C80009150A1F0FF0FBB1F661F771F881FC2F77F
:101C90000EC0BA0F621F731F841F48F48795779593
:101CA0006795B795F7959E3F08F0B3CF9395880F4A
:101CB00008F09927EE0F97958795089597F99F67F4
:101CC00080E870E060E008959F3F31F0915020F48B
:101CD000879577956795B795880F911D9695879508
:101CE00097F908959FEF80EC089591505040660F4A
:101CF000771F881FD2F7089500240A941616170636
:101D000018060906089500240A94121613061406EC
:101D10000506089557FD9058440F551F59F05F3F31
:101D200071F04795880F97FB991F61F09F3F79F0FD
:101D300087950895121613061406551FF2CF46957F
:101D4000F1DF08C0161617061806991FF1CF869501
:101D50007105610508940895E894BB2766277727E5
:0A1D6000CB0197F90895F894FFCF26
:101D6A000000000000000000000102020303030358
:101D7A000404040404040404050505050505050511
:101D8A0005050505050505050606060606060606F1
:101D9A0006060606060606060606060606060606D9
:101DAA0006060606060606060707070707070707C1
:101DBA0007070707070707070707070707070707A9
:101DCA000707070707070707070707070707070799
:101DDA000707070707070707070707070707070789
:101DEA000707070707070707080808080808080871
:101DFA000808080808080808080808080808080859
:101E0A000808080808080808080808080808080848
:101E1A000808080808080808080808080808080838
:101E2A000808080808080808080808080808080828
:101E3A000808080808080808080808080808080818
:101E4A000808080808080808080808080808080808
:101E5A0008080808080808080808080808080808F8
:081E6A00080808080808080830
:00000001FF
